:020000040000FA
:10000000021F3F022003FFFFFFFFFF02200BFFFF45
:10001000FFFFFF022013FFFFFFFFFF02201BFFFF78
:10002000FFFFFF022023FFFFFFFFFF02202BFFFF48
:10003000FFFFFF022033FFFFFFFFFF02203BFFFF18
:10004000FFFFFF022043FFFFFFFFFF02204BFFFFE8
:10005000FFFFFF022053FFFFFFFFFF02205BFFFFB8
:10006000FFFFFF022063FFFFFFFFFF02206BFFFF88
:10007000FFFFFF022073FFFFFFFFFF02207BFFFF58
:10008000FFFFFF022083FFFFFFFFFF02208BFFFF28
:10009000FFFF70DFFFFF040000000002000000C847
:1000A000030002030369A5020269A532730000017F
:1000B00000000000000400FFFFFFFFFFFFFFFF0440
:1000C00003090424035400650078006100730020D4
:1000D0000049006E0073007400720075006D0065C9
:1000E000006E007400730024035400490020004394
:1000F000004300320035003300310020005500532A
:10010000004200200043004400430000035F005F02
:100110000030005800000000000000000000000057
:1001200000000000000000000000000000000000CF
:100130000000000000303132333435363738394171
:100140004243444546331C881C881C881C881C90EC
:100150001C74F8121BCD900391E06015900302749B
:10016000FEF0900304744DF0A37405F07A011207B9
:100170001C7F01021D6C74F8121BCD74FF121EB699
:100180007E00801F851882851983E064FE700690CA
:1001900003877401F0851882851983E0F890038441
:1001A000E068F07901AA18AB191210E9E9700302AE
:1001B0000287851882851983E064EF70027E07E06C
:1001C000C0E0900387E0FA900385E0F8EA28F8E4BD
:1001D0003400F9740228F582740339F583D0E0F015
:1001E000900387E0609E14600E14602B14603B1433
:1001F0006051146067809E900384E4F085188285C6
:100200001983E0900386F0C394809003874003E451
:1002100080827402020194851882851983E090031C
:1002200082F09003877403020194851882851983F4
:10023000E0900383F0900386E060199003877404D4
:10024000020194900385E004F0F8900386E0686072
:10025000030201959003877405020194900385E4DD
:10026000F0900387F0900384E0F885188285198365
:10027000E0686003020195900382E0644D60030230
:1002800001951203BF8002EEF97401121E370201BC
:100290007174F7121BCD74FB121EB6EAFEEBFF75EC
:1002A00008047509007808121ED07402121F377AEC
:1002B000907B0079041218EB7402121E3712070E9D
:1002C000121F88E0687003A3E069701285188285A8
:1002D0001983E0F47003A3E0F4600302039A74044A
:1002E000121F2F1207708A088B09A808A909740227
:1002F000121F88E8F0A3E9F07404121F88E0600878
:1003000079011201510203B3851882851983E068CF
:100310007003A3E0697076851882851983E0F47014
:1003200003A3E0F470197402121F887410F0A37410
:1003300020F08518828519837410F0A37420F0755D
:1003400008017509007808121ED07402121F377A4E
:10035000247B0812196F7402121E3775080478087E
:10036000121ED07402121F377A907B007904121883
:10037000EB7402121E3712070E121F88E06870031A
:10038000A3E069700479028006790480027903127F
:1003900001518E828F83741E80058E828F83E4F0DC
:1003A00012070E121F88E0687003A3E069700479D9
:1003B00001800279007405121E377F02021D6C74E1
:1003C000ED121BCD74F8121EB6900307E0FD9003EA
:1003D00006E0FCFAEDF8E4C8F9EA28FEE93408FF83
:1003E000751001750B00750A068E088F0974027866
:1003F00008121F1CC39508F8E49509F9740228F542
:100400000E740339F50F8E088F0974097808121FCE
:100410004EE508F511EE2410F508E43FF509EEF578
:100420000CEF5401F50D900383E014605914700330
:100430000204FB14700302057614601024FE70039E
:100440000206311470030206E10206F1750A03790F
:100450004E1213BD9003071207047402F0A37440F8
:100460001207027408120702F0A3F07418C394076D
:1004700004F510AA10A90B12071CA90A7408121E71
:10048000377F0C021D6C750A04794E1213BDEE45C0
:100490000D7005A9111219D5C3EE9425EF940850DB
:1004A0003CC3E5089424E50994084031E50E249600
:1004B000F8E50F3420F988828983E0701BA3AA82B3
:1004C000AB83E070139003887401F0888289837491
:1004D000A5F08A828B838004900388E4F07508106D
:1004E0007509007808121ED07C087D03EEFAEFFB38
:1004F00012196F7402121E37020473750A05E51192
:10050000C394794006750B0102047375124075138C
:10051000007812121ED07C097D037402780C121F21
:100520001CAA0CAB0DA9111218EB7402121E379005
:100530000307E0A3F0900306E0A3F0751043C3EEB9
:100540009425EF94084003020473C3E5089424E55E
:100550000994085003020473900388E070030204B6
:1005600073E50E2497F8E50F3420F988828983E437
:10057000F0A3F00204737508047509007808121ED0
:10058000D07402121F377A907B0079041218EB7432
:1005900002121E377402121F88E0F8A3E0F98518D2
:1005A00082851983E0687003A3E069851882851944
:1005B00083700BE0F47003A3E0F470578009E0F45B
:1005C0007003A3E0F4700D8518828519837410F010
:1005D000A37420F012070E121F88E8F0A3E9F0754B
:1005E00008017808121ED07402121F377A247B0883
:1005F00012196F7402121E377508047808121ED083
:100600007402121F377A907B0079041218EB74027F
:10061000121E3712070E121F88E0687003A3E069EC
:100620007006750A01020473750A02750B0702044D
:10063000739003D6E0600764026003020473EDFF69
:100640007A01790012071CE060030206D5800312CC
:10065000118512116CE970F77404121F881206F6E6
:100660007404121F887808121F6C85080C85090D08
:10067000850A0E850B0F9003C2780C121EF67404C7
:10068000121F88780C121F5DE5084509450A450BC5
:1006900070CE8EC2E5C554E04FF5C57404121F88B4
:1006A0001206F67404121F887808121F6C85080C55
:1006B00085090D850A0E850B0F9003C2780C121E5A
:1006C000F67404121F88780C121F5DE50845094571
:1006D0000A450B70CE7A01790012071C79080204D2
:1006E0007CEC900391F07003020473750A09020414
:1006F00073790602047CE4F0A37426F0A3E4F0A36B
:10070000F022F0A3E4F0A3F0A3F0A3F0A322851855
:1007100082851983E0F8A3E0F974022274F8121BB1
:10072000CDEAFE900305E0D2E7F0E9A3F0EE9003F6
:1007300003F08E0874042AFE7C028004E062080C38
:10074000ECFA3395E0FB74022AF58274033BF583DF
:10075000EEF8C3EA98EB9400A2D265D03340DDE511
:1007600008F074012AF97A027B0312112702017141
:1007700074E9121BCD7582007583FE121E198A164C
:100780008B177514007515008A828B83E4F0900333
:10079000D6E07006D2AAD2AF800464027005790058
:1007A000120151750C00750D20750E00750F00902B
:1007B00003D6E0600464027015121185120176E917
:1007C000F874096860030208AC7900120151E06412
:1007D000027007A29240030208877508007509029B
:1007E0007808121ED07402121F37850C08850D0977
:1007F000AA08E5095407FB850E0A850F0B740B78D0
:1008000008121E87A9081218EB7402121E377E0008
:100810007F009003CAC0828E10EFF5113395E0F58A
:1008200012F513850C08850D09850E0A850F0B78C6
:10083000087910121F099003C67808121EF67583F6
:1008400003D0827808121DFA501D851882851983FD
:10085000E5822EF582E5833FF583E0F9AA14AB1516
:100860001208DB8A148B150EEE70010FC3EF940291
:1008700040A09003CE780C121EF69003D2780C1292
:100880001DFA40030207AF7900AA14AB151208DB6A
:1008900079001208DB8B159003D6E07004C2AFC25A
:1008A000AAEA451570277AA57BA58021E870030286
:1008B00007CE74066870030207CE740768700302DF
:1008C00007CE8516828517837401F080BA75820081
:1008D000758302121E197F10021D6CC008C0097CAE
:1008E000088A088B09740F7808121F4EE508F8EA89
:1008F00025E0FAEB33FBE9A2E7500474014AFAE879
:10090000A2E0500874216AFA74106BFBE9C333F952
:100910001CEC70CDD009D00822C082C083120F33E6
:1009200060030209F0A3E0F8A3E060030209F0A36A
:10093000E064027002A3E060030209F09003B8E0F3
:100940002480600914604F14605C0209F0E86003C1
:100950000209F09003B2E060047801800278009010
:1009600003C0E8F0A3E4F09003B1E0600A9003C094
:10097000E04402F0A3E4F09003A6E0640460149065
:1009800003B374C0F0A37403F0A3E4F0A3740212E1
:100990000F95F0020E6E90039FE064047052900376
:1009A000C0E4F0A380D0E8547FFA90039FE0640491
:1009B000703EEAC394065038749F2AF582E43403EB
:1009C000F583E854806018A3A3A3A3A3A3A3E064C2
:1009D0000370047801800278009003C0E88094E5F9
:1009E00082240CF58250020583E0640370E980E301
:1009F0009003A67404809B74F8121BCDE9FE90034B
:100A0000BE120F366003020AD990039FE0640460AF
:100A10000B9003BC120F366003020AD99003B8E0B2
:100A2000541F6009146030146020020AD99003BA80
:100A3000E064017022EE9003B1F060047905800259
:100A400079067A00121BCB020ADF9003BCE0547FC8
:100A5000FA9003BAE060057900020AE1EAC394065D
:100A60005077EA90620EF0749F2AF8E43403F9900C
:100A700003BCE05480602EEE600474108002744069
:100A8000906211F0EE60047B0380027B00EB8882B1
:100A90008983A3A3A3A3A3A3A3F0EE600479088092
:100AA0002F7907802BEE60047B2080027B80EB9007
:100AB0006214F0EE60047B0380027B00E8240CF5F6
:100AC00082E439F583EBF0EE6004790A800279095B
:100AD000121BCB90620EE480059003A67404F0799B
:100AE000017F01021D6C79001209F7E97003121BE6
:100AF000BA2279011209F7E97003121BC922C082D8
:100B0000C0839003BC120F367015A3120F36700FFE
:100B10009003BA120CD95480FAE9FBEA4B600790B3
:100B200003A67404801AE8906200F090039F6009A5
:100B3000E06402700C74038007E0640370037402C5
:100B4000F0020E6E74F5121BCD9003BAE0FAA3E02A
:100B50001460081460101460398057121754120C76
:100B6000B6A37B8080417900121776120CB67B8089
:100B7000E92402F9E43AFA121E6DFC1919E0FAA30D
:100B8000E92403F9E43AFA121E6DF9ECA3F0A3E9A3
:100B9000801CEAF91217E49003B3EAF0A3EBF0A388
:100BA000E4120CC5A37B00121E6DA3F0A3E4F002B7
:100BB0000C709003B3E4F0A3F0A3F0750B00900465
:100BC0007DE0FAA3E0FB020C4E850B08750900746A
:100BD000037808121F1CEA2508F8EB3509F9900381
:100BE000BA120CCFE493C0E0EFFCD0E06C705DA3D0
:100BF000E4936E70579003BC120CCFA3A3E493C090
:100C0000E0EFFCD0E06C704488828983A3A3A3E466
:100C1000936E703888828983A3A3A3A3E493F50815
:100C2000740193F5099003B3E508F0A3E509F0A377
:100C30007480F088828983A3A3A3A3A3A3E493F879
:100C4000740193F99003B6E8F0A3E9F0050B900462
:100C50007F120CD9C39AF508E99BF509740378084B
:100C6000121F4EC3E50B9508E495095003020BC90A
:100C70009003B3E0FCA3E0FDA3E0FEEC4D4E900337
:100C8000A6700474048029E0640460259003BEE02B
:100C9000FAA3E0FB9003B6E0F8A3E0F9C3EA98EB0F
:100CA0009950089003B6EAF0A3EBF09003A6740104
:100CB000F07F04021D6C9003B3EAF0A3EBF0A37481
:100CC00080120CC522F09003B3E0F9A3E0FA22E011
:100CD000FEA3E0FF8882898322E0F8A3E0F9E822FE
:100CE00074EE121BCDEA2404F8E43BF98808890964
:100CF0008882F583E4936025900481120CD9FEE983
:100D0000FF8007EE2404FE50010F8E828F83E49350
:100D1000F8740193F9EA687002EB6970E6750B00EC
:100D2000803F9062147490F07410120E3570037549
:100D30000A408E828F83A3A3A3E493550E6006E539
:100D40000AD2E0F50AE50A906215F0EA906213F023
:100D5000EC240CF582E43DF583E4F090620EF0059E
:100D60000B850882850983E493F8E50BC39840035B
:100D7000020E307A0079051216E78A0C8B0DEA45CF
:100D80000D60DCEA2402F8E4350DF9881089118839
:100D900082F583E493540FF51290620EF0750A0009
:100DA0008A828B83A3A3A3A3E4932407F50EA3E471
:100DB000933400F50F7403780E121F4EAA0EA8127A
:100DC000749F28F8E43403F9E8FCE9FD750E017519
:100DD0000F00E512780E121F1CE50EF50EE50C242F
:100DE00003F8E4350DF9851082851183E493A2E7B9
:100DF0004003020D229062117448F07408120E35FF
:100E00007003750A408E828F83A3A3E493550E600E
:100E100006E50AD2E0F50AE50A906212F0EA90626D
:100E200010F08C828D83A3A3A3A3A3A3A3020D59C7
:100E30007F0B021D6CF088828983E4935403640164
:100E400022C082C083120F337010A3120F36700AB3
:100E5000A3E064017002A3E060079003A67404801D
:100E60000C9003B374A0F0A37403120F8BF0D08323
:100E7000D0822274F3121BCD90039FE064026014B1
:100E80009003BC120F36700CA3120F36700690033D
:100E9000BBE060099003A67404F0020F2E7A00797B
:100EA00001121BCB9003BAE0606F7A00F91217763B
:100EB0008A0A8B0BEA450B605890039F7404F090EC
:100EC00003BAE09003A0F0750800850A82850B83C1
:100ED000A3A3A3A3E493F8E508C398504AA8087411
:100EE000A128F8E43403F9E8FEE9FF8E828F83E459
:100EF000F07A0079041216E78A828B83A3A3A3E415
:100F000093F88E828F83E06870E7120CE00508800A
:100F1000B99003A67404F0800E9003A0F090039F94
:100F20007403F0F91216677A007902121BCB7F0660
:100F3000021D6C9003BAE0F8A3E0F9E8492274F6C8
:100F4000121BCD90039FE0640470199003B8E06415
:100F5000817011120F33700C9003BEE064017002B7
:100F6000A3E060079003A67404801A9003BCE024F9
:100F7000A1F508A3E03403F5099003B3E508F0A355
:100F8000E509120F8BF07F03021D6CF0A3E4F0A3C0
:100F900004120F9522F0A3E4F09003A6042274F744
:100FA000121BCD90039FE0640470649003B8E0646A
:100FB00001705C9003BE120F3670549003BAE0FBD0
:100FC0009003BCE0FA9003A0E0F91217AE8A088BF8
:100FD00009AE08AF09EE4F60369003BCE0FA790322
:100FE000121BCB9003BAE0C0E09003BCE024A1F850
:100FF000A3E03403F988828983D0E0F0EEFAEFFBB6
:10100000120CE09003BCE0FA7904121BCB8006902E
:1010100003A67404F07F02021D6CC082C0838003AB
:10102000121A31A2E840F9A823E854046009782391
:10103000E654FBF612140EA823E854106009782336
:10104000E654EFF612142FA823E8A2E05005782307
:1010500054FCF690620EE0FA7404F0906214E0A280
:10106000E05039A9A8C2AF906216E0F8A3E0E8FB0F
:10107000E9A2E792AF8017906228E0C0E090039366
:10108000E0F812111CD0E0F0900393E004F0EBFDC7
:1010900074FF2DFB0470E0906214E4F0EA90620E9D
:1010A000F0E0FC7404F0906211E0A2E040319003A3
:1010B00095E0F8900394E06860257A4090039412DC
:1010C000115FE0906228F0900394E004F008900330
:1010D00095E06860041AEA70E39062117401F0EC24
:1010E00090620EF0D083D0822274F8121BCDE9FEFC
:1010F0007900801212111CE08A828B83F090039297
:10110000E00412115409900392E0F8900393E06810
:101110006005E9C39E40DD7F01021D6C748528F5E2
:1011200082E43404F58322C082C083E9FC80188AFB
:10113000828B83E0C0E090039512115FD0E0121122
:1011400054900395E004F0ECF874FF28FC0470DF81
:1011500079018090F08A828B83A3AA82AB8322E0FC
:10116000F8748528F582E43405F58322C082C083B3
:10117000900395E0F8900394E068600479018002A0
:1011800079000210E402101A74FB121EB67E009061
:1011900006857808121F6C794A1213BD9006857473
:1011A00001F0A3F0A37469F0A374A5F09003D778BD
:1011B00008121EE170047E0180159003DB7808128E
:1011C0001EE16008E59D541864107003022000EED3
:1011D000F9121334C280D291EEA2E050030212E75A
:1011E000AA18AB19120291E970030212E7C29185A5
:1011F0001882851983E0C3943C500EE0F8743CC318
:1012000098F50895E0F5098006750800750900E471
:10121000F50AF50B9003DF780C121F6C7808790C37
:10122000121AD1790612015112101A120176E9F838
:101230007409687007790612015180277407686085
:1012400016A2935012E8600874066860030212E761
:10125000A292400F0212E7750800750900750A0096
:10126000750B0085080C85090D850A0E850B0F90FE
:1012700003C27808121EF6E50C450D450E450F70A9
:10128000A7D2807907120151800312101A12116C33
:10129000E970F77E007F007401121F88E4F0A374E8
:1012A00026F0A3E4F0A3F07401121F887808121F3F
:1012B0006C85080C85090D850A0E850B0F9003C2FD
:1012C000780C121EF67401121F88780C121F5DE54F
:1012D000084509450A450B70CEA29250FCA29350D6
:1012E000F81213B8022000D280D291794E1213BDA9
:1012F000750800750900750A00750B007905120163
:101300005112101A120176E9F874096860EE74013E
:101310006870EE12101A9003E37808121EF690031C
:10132000E77808121DFA50EB1213B802200074057A
:10133000121E372274F8121BCDE9FE53BEFBE59D49
:10134000A2E650FA0078F8790100E824FF18E934A1
:10135000FFF9E84970F375C6807480659E70FA43A2
:10136000BE049062707408F01213ADEE700853F46E
:10137000FEC29043FE017403F5D575D4899003969F
:10138000E4F0A374C2F0A37401F0A3E4F0A3F0A30B
:10139000F0A37408F01213D37AFF7BFF1219EC53F9
:1013A000F4FED29043FE011213AD021117D2804316
:1013B000FD01C29143FE0222D280C29122781075B3
:1013C000B60FE5B4A2E750FAE5BBC39940F118E8BF
:1013D00070ED2274F7121BCD7A0079011217768A0C
:1013E000828B83A3A3A3A3A3A3A3E493A2E6900366
:1013F000B2500474018001E4F09003B1E4F0906213
:101400000F7403F0E0A2E750FB7F02021D6CC08264
:10141000C08390039F7402F0A3E4F09003A6F079D8
:1014200003121667752100752200D083D0822274C2
:10143000F6121BCD90620EE0FEE4F0906211E0FF28
:10144000A2E4501D7480F09003A67407F0E52145D6
:10145000226009852182852283121F979003A6E4CA
:10146000F0EFA2E2500B906211E4F09003A6F0803E
:10147000679003A6E0F87402687046906216E0FF79
:101480009003B3121DACEFF97A207B6212168174BF
:1014900003121E37EFF89003B612164512164F2F9F
:1014A000121657A3E0F8A3E0F9E8496004744080FD
:1014B000027448906211F0E849600302163B02167C
:1014C000177406687009852182852283121F979000
:1014D00003A6E060030215C2EFA2E0400302163B40
:1014E0007508B8750903750A007808121ECC7908CA
:1014F0007A207B621216817403121E3775210075E3
:1015000022009003B8E054E0601D24E0700302154F
:101510009D24E0607224C0604824E070030215A896
:1015200024E0606E0215B3A3E014602624FE601D63
:1015300024FE600A24FC601F24FE60208075120ACD
:10154000FE9003A6E06404707278608070120AF264
:1015500080EF120AE680EA120E7380E5120F9E8079
:10156000E0A3E0600E24FA600F24FE601024FE6009
:1015700011804012091980C9120B4480C4120E4117
:1015800080BF120F3E80BA7521B675221B121BB6A2
:1015900080AF7521B875221B121BB880A47521512C
:1015A00075221B121B51809975218175221B121BFC
:1015B00081808E9003A67404F0808E7840E890625B
:1015C00011F09003A6E0F874016870617F02900347
:1015D000B6E0F8A3E0F9C3E89420E994005007E8E6
:1015E000F5087F0A80037508209003B3121DACA98B
:1015F000087A207B621216AC7403121E37AC0812F4
:10160000164F2C121657A808A3121645EF90621118
:10161000F0E8C394205024E5214522600985218209
:10162000852283121F979003A6E4F0800E7405684C
:101630007009852182852283121F97EE90620EF039
:101640007F03021D6CC3E098F0A3E09400F02290A9
:1016500003B31216D9E922F9E43AFA9003B3E9F098
:10166000A3EAF0A3EBF022C082C083E99003A7783D
:1016700005F0A3D8FC9003AC7805F0A3D8FC0214C5
:101680002A74F8121BCDEAFCEBFDE9F87408121F6E
:10169000881216D460118C828D83E0121EA0E9247A
:1016A0000109E43AFAD8EF7F01021D6C74F8121BAD
:1016B000CDEAFCEBFDE9F87408121F881216D4601D
:1016C00011121E6D8C828D83F0E9240109E43AFA2F
:1016D000D8EF80D31216D9E822E0F9A3E0FAA3E00C
:1016E000FB22D083D08222C082C083E9FCEAFD7A4B
:1016F000007B00800312173290039DE0F8A3E0F90D
:1017000090047BE0687003A3E069602490039EE08E
:10171000F5838882A3E493F8EC68700D90039DE054
:10172000FAA3E0FB1217328007ED6870C8ED60C5C0
:1017300080B090039DE0F8A3E0F5838882E493F8FD
:1017400090039DE028F8A3E03400F990039DE8F0B1
:10175000A3E9F022C082C0831217657A00790112D2
:1017600016E70216E2900479E0F8A3E0F990039DF1
:10177000E8F0A3E9F02274F7121BCDE9FFEAFE12AC
:1017800017657A0079021216E7EA4B601CEF6010C9
:101790008A828B83A3A3A3A3A3E4936F70E480093D
:1017A000EEF874FF28FE0470D97F02021D6C74F5F8
:1017B000121BCDEAFF8B087A001217767A027904A1
:1017C0001216E7EA4B60188A828B83A3A3E4936F17
:1017D00070EA8A828B83A3A3A3E493650870DD7FFC
:1017E00004021D6C74F7121BCD74F0121EB6E97A58
:1017F000007B00600C146010146014146018021850
:10180000D47AF37B030218D47AF77B030218D47AD4
:101810001B7B040218D490043FE060030218D090B0
:1018200003EB7408121F377408121DD9750808F5E8
:10183000097808121ED07402121F377AE87B0779E4
:101840007F1218EB7402121E377808121ED0740A29
:10185000121F377402121F2F121C907402121E37AF
:101860008B09EA450970197509007808121ED07CA9
:101870000C7D787402121F2F121D267402121E375F
:101880007C287D00EDF8851882851983E58228F58E
:1018900082E43583F583E0FFECF8743F28F8E43404
:1018A00004F9EF1218DC88828983F0EFC41218DC87
:1018B000C0E0E824FEF582E934FFF583D0E0F00DC6
:1018C00074FC2CFCEDC3940840BA90043F742AF0D9
:1018D0007A3F7B047410121E370217A9540FFA7452
:1018E000692AF582E43404F583E02274F6121BCDF4
:1018F000890A740F550AF508750900740B780812E7
:101900001F1CEA2400F8EB3480F9E82400E93509CB
:10191000F985C709A2AFE433F508C2AFE50AC4549C
:101920000FFAE5C754F84AF5C7740A121F88E0FA9F
:10193000A3E0FB801C88828983E08C828D83F08801
:10194000828983A3A882A9838C828D83A3AC82AD74
:1019500083EAFEEBFFEE24FF1AEF34FFFBEE4F703D
:10196000D48509C7E508A2E092AF7F03021D6C741D
:10197000F7121BCDED900389F0ECA3F0A37462F095
:10198000A37473F0A3E0541FF07409121F88E0F5EC
:1019900008A3E0F509E508333354FC90038EF07496
:1019A000067808121F4EE50890038DF090038F749F
:1019B00012F0A37442F075D1FE75D601EA906271FF
:1019C000F0EBA3F0906270E0D2E1F0E0A2E740FB20
:1019D0007F02021D6CC082C083E9C333906272F043
:1019E000906270E0D2E0F0D083D0822274F7121BB4
:1019F000CD7523007524007525008A268B27EA9073
:101A0000620BF08A088B0974047808121F4EE508EF
:101A1000906207F08A088B0974097808121F4EE556
:101A200008543E906209F0758B00C2E87F02021DE7
:101A30006C74F7121BCDE59DA2E650FA906206E0A9
:101A4000F9A2E25034AA26EA90620BF0F508852745
:101A50000974047808121F4EE508906207F08A089E
:101A600085270974097808121F4EE508543E9062D4
:101A700009F0906201E0D2E0F0E9782346F6906246
:101A800002E0F50875090074047808121F1C782319
:101A9000E50846F608E50946F6906204E0F50875A3
:101AA000090074097808121F1C7824E50946F6E934
:101AB000A2E050037525017406596003752500E501
:101AC0008BA2E55006758BDF752500121BCC021A20
:101AD00027080808EAC0E0EBC0E086F0E7A4FA189F
:101AE0000986F0E7A42AFA180986F0E7A42AFA186A
:101AF0000986F0E7A42AFA1986F0E7A4FBE5F02AA4
:101B0000FA190886F0E7A42BFBE5F03AFA190886E3
:101B1000F0E7A42BFBE5F03AFA18180986F0E7A4E1
:101B2000C5F02BFBE43AFA1908E7C5F0C6A426F67F
:101B3000E5F03BFBE43AFA1886F0E7A4F6E5F00896
:101B400026F6E43B08F6E43A08F6D0E0FBD0E0FAEB
:101B500022C082C0839003B9E0F8742268700890B4
:101B600003A6E0701A80117420689003A6700DE03F
:101B7000700D121BA89003A6740280027404F080FA
:101B800043C082C0839003B9E064219003A6701320
:101B9000E07013121BA8A37407F0A3E4F09003A64F
:101BA0000480027404F0801C9003B37496F0A37454
:101BB00003F0A3E4F02280028000C082C08390037F
:101BC000A67404F0D083D0822280EF22222518C58B
:101BD00082C0E0E51934FFC583C0E0E518C39582F3
:101BE00024F910AF08858319858218800885831928
:101BF000858218D2AFCEF0A3E520F0A37808E608DE
:101C0000F0A3DEFAEFF0A3E58124FBF8E608F0A3E9
:101C1000E608F0A30808E608F0A3E608F0A315819B
:101C20001581D0E0FED0E0F815811581E8C0E0EE26
:101C3000C0E02212010002020000205104A816098F
:101C40000001020301090243000201008019090496
:101C50000000010202010005240010010424020218
:101C60000524060001052401000107058203400048
:101C70004009040100020A00000007058402400038
:101C800000070504024000004E1C0000711C00000B
:101C900074F8121BCD7408121F88E0FEA3E08015B3
:101CA000A3AA82AB838C828D83A3AC82AD83EE2406
:101CB000FF1EEF34FFFFEE4F60198C828D83E0F83A
:101CC0008A828B83E0F9E86960D6E9C398FA95E0E7
:101CD000FB80047A007B007F01021D6CE47921788F
:101CE00007B800028004F709D8FCE490030278C129
:101CF00079018002F0A3D8FCD9FA7AC27B03900064
:101D00008E78C479018015E493A3AD82AE838A8274
:101D10008B83F0A3AA82AB838D828E83D8E9D9E727
:101D2000121188121F9274F7121BCDEAF8EBF974A6
:101D300009121F88E0FEA3E0FF80188C828D83E0EB
:101D400088828983F0A3A882A9838C828D83A3AC27
:101D500082AD838E088F09E50824FF1EE50934FF54
:101D6000FFE508450970D47F02021D6C8519838543
:101D70001882E0A3FEE0A3F5207808E0A3F608DFD0
:101D8000FAE0A3FFE0A3C0E0E0A3C0E0E0A3C0E06E
:101D9000E0A3C0E010AF088582188583198008850C
:101DA0008218858319D2AFD083D082227403800039
:101DB000CCC0E0EDC0E0E518C39CCCAD1950011DCE
:101DC00010AF068C188D1980068C188D19D2AF12A1
:101DD0001DD9D0E0FDD0E0FC22CAC0E0E0A3C5825E
:101DE000CCC582C583CDC583F0A3C582CCC582C5D1
:101DF00083CDC583DAE6D0E0CA22C008C3E096F5F9
:101E00000808A3E096420808A3E096420808A3E069
:101E10009645087001D3D00822C5822518C582C511
:101E200083351910AF07F5198582188007F51985D4
:101E30008218D2AFC5832200C0D0251810AF08F594
:101E400018500C05198008F51850020519D2AFD0AA
:101E5000D0222518F58210AF08F518400C1519800E
:101E600008F51840021519D2AF85198322BB01026B
:101E7000E722C082C08389828A83BB0003E080029C
:101E8000E493D083D082226016080808C6C313C624
:101E900018C613C618C613C618C613C6D5E0EA225C
:101EA000BB000EC082C0838A838982F0D083D08237
:101EB00022BB0101F722251810AF08F518400C15B8
:101EC000198008F51840021519D2AF227403800456
:101ED00074028000C0E0F404121E52D0E0121F7B96
:101EE00022E066701008A3E066700A08A3E066703E
:101EF0000408A3E06622E026F608A3E036F608A36D
:101F0000E036F608A3E036F622E627F60809E637BB
:101F1000F60809E637F60809E637F622700422606B
:101F20000D18C6C333C608C633C6D5E0F41822253B
:101F300018FAE43519FB222518FCE43519FD227541
:101F4000D00075813F751802751903021CDC600C06
:101F500008C6C313C618C613C6D5E0F422E6F008B7
:101F6000A3E6F008A3E6F008A3E6F022E0F608A353
:101F7000E0F608A3E0F608A3E0F622CAC0E0E6F027
:101F8000A308DAFAD0E0FA222518F582E43519F52B
:101F9000832200000080FBE473FFFFFFFFFFFFFFD1
:101FA000FFFFFFFFFFFFFFFFFFFFFFFFFFFFFFFF41
:101FB000FFFFFFFFFFFFFFFFFFFFFFFFFFFFFFFF31
:101FC000FFFFFFFFFFFFFFFFFFFFFFFFFFFFFFFF21
:101FD000FFFFFFFFFFFFFFFFFFFFFFFFFFFFFFFF11
:101FE000FFFFFFFFFFFFFFFFFFFFFFFFFFFFFFFF01
:0A1FF600850609433886000000004C
:020000040003F7
:01FFF000F020
:020000040000FA
:10200000022D7302222DFFFFFFFFFFFFFFFFFFFFE7
:10201000FFFFFFFFFFFFFFFFFFFFFFFFFFFFFFFFD0
:10202000FFFFFFFFFFFFFFFFFFFFFF022B3DFFFF53
:10203000FFFFFF02224FFFFFFFFFFFFFFFFFFFFF3A
:10204000FFFFFFFFFFFFFFFFFFFFFFFFFFFFFFFFA0
:10205000FFFFFF02216DFFFFFFFFFFFFFFFFFFFFFD
:10206000FFFFFFFFFFFFFFFFFFFFFF022A06FFFF4B
:10207000FFFFFFFFFFFFFFFFFFFFFF02288DFFFFB6
:10208000FFFFFF0221C1FFFFFFFFFFFFFFFFFFFF79
:1020900010201020010020FD00020000743100001B
:1020A00000000E31F8314431B63100003831000003
:1020B0000000000000000000000000000000000020
:1020C00000000000000006FFFFFF00035F005F004C
:1020D0003000580000000000000000000000000078
:1020E00000000000000000000000000000000000F0
:1020F00000000000AC26012701270127012709273E
:1021000001010400CB18000000E8030000FFFF46B7
:102110001903E803000064006400B801A0BB0D00CF
:10212000A0BB0D0002020008000005020704010523
:102130001E02051E020A0A01080803B80B02803EAF
:102140000102FEFFE8030A050001FFFF0A1401E097
:10215000010105030101FF0F10FEFF194E000000F1
:10216000008B4C00000000FF000000FF00C0E07486
:10217000F212264DA2AFE433F508D2AFAFA7AEA15D
:10218000EE5F54106006122EA475A1EFEE5F5408A6
:102190006008122EAA75A1F78023EEA2E092F0EF5C
:1021A000A2E082F05017906198E0F890054CE0C3EF
:1021B00098A2D265D0335002E8F075A1FEE5088000
:1021C00063C0E074F212264DA2AFE433FED2AF90AA
:1021D00061A4E0F8759B00E591585408600875917A
:1021E000F7122EF28023E59158541060087591EF94
:1021F000122EF88014E591A2E092F0E8A2E082F0BD
:102200005007E0C2E0F01230429061A3E0F8E5E947
:10221000585404600E12301875E9FB906193E0A2E7
:10222000E640F2EEA2E092AF7F01022709C0E0741F
:10223000F212264DA2AFE433FED2AF9061A5E0F8D2
:10224000E5BF585404600675BFFB12305A80D4C0F5
:10225000E074F112264DE59DA2E650FA906206E088
:10226000F9A2E25034AA2CEA90620BF0F508852D11
:102270000974047808122D92E508906207F08A0824
:10228000852D0974097808122D92E508543E906254
:1022900009F0906201E0D2E0F0E9782946F6906218
:1022A00002E0F50875090074047808122CC3782937
:1022B000E50846F608E50946F6906204E0F508757B
:1022C000090074097808122CC3782AE50946F6E952
:1022D000A2E05003752B017406596003752B00E5CD
:1022E0008BA2E55006758BDF752B00123576758B4A
:1022F00000C2E87F02022709C3E498F8E499F912C2
:1023000023398026C3E49AFAE49BFBE920E7E9122B
:102310002339E498F8E499F922C3E498F8E499F9A8
:10232000122339E498F8E499F9C3E49AFAE49BFBA0
:1023300022EB20E7CFE920E7E0B90010BB0008E876
:102340008AF084F8AAF022E4FBC8FA22EB70227B20
:1023500010C833C8C933C9335007C39AC3DBF280EE
:10236000069A50012ADBEAC833F4C8C933F4C9FA23
:102370002275F008E4C833C8C933C933C99AC99B68
:102380005004C92AC93BD5F0ECFBC833F4C8E4C9F2
:10239000FA2274F512258474FA122BBA75080475A2
:1023A00009007808122B2A7404122B9A7AF87B07FA
:1023B00079031248FC7402122AEC90811F780812EB
:1023C0002D837402122E047808122C11704975089E
:1023D000027509007808122B2A7402122B9A7AF6D9
:1023E0007B0779031248FC7402122AEC8518828557
:1023F0001983E0F47003A3E0F4601C85188285194A
:1024000083E0F8A3E0F9888289837402F0A3F0A343
:102410007469F0A374A5F0C2AF75D69F0200007472
:1024200006122AEC7F040228D0080808EAC0E0EB74
:10243000C0E086F0E7A4FA180986F0E7A42AFA18A3
:102440000986F0E7A42AFA180986F0E7A42AFA19FF
:1024500086F0E7A4FBE5F02AFA190886F0E7A42B3A
:10246000FBE5F03AFA190886F0E7A42BFBE5F03A11
:10247000FA18180986F0E7A4C5F02BFBE43AFA191C
:1024800008E7C5F0C6A426F6E5F03BFBE43AFA18E7
:1024900086F0E7A4F6E5F00826F6E43B08F6E43A11
:1024A00008F6D0E0FBD0E0FA22E4CFC0E0E4CEC0F2
:1024B000E0E4CDC0E0E4CCC0E075F020E626F6080C
:1024C000E633F608E633F608E633F6181818EC3368
:1024D000FCED33FDEE33FEEF33FFC3EC9709ED97D0
:1024E00009EE9709EF97191919400FFFEC97FC09AE
:1024F000ED97FD09EE97FE191906D5F0BFECF70927
:10250000EDF709EEF709EFF7191919D0E0FCD0E063
:10251000FDD0E0FED0E0FF222518C582C0E0E5191D
:1025200034FFC583C0E0E518C3958224F810AF08D6
:102530008583198582188008858319858218D2AF12
:10254000CEF0A3E520F0A37808E608F0A3DEFAEFCA
:10255000F0A3E58124FAF8E608F0A3E608F0A3E684
:1025600008F0A30808E608F0A3E608F0A315811513
:1025700081D0E0FED0E0F8158115811581E8C0E03A
:10258000EEC0E0222518C582C0E0E51934FFC583FE
:10259000C0E0E518C3958224F910AF08858319853A
:1025A00082188008858319858218D2AFCEF0A3E502
:1025B00020F0A37808E608F0A3DEFAEFF0A3E581A7
:1025C00024FBF8E608F0A3E608F0A30808E608F004
:1025D000A3E608F0A315811581D0E0FED0E0F81540
:1025E000811581E8C0E0EEC0E022122DF9B90003A8
:1025F000022637E47921780DB800028004F709D863
:10260000FCE49004D1785579188002F0A3D8FCD965
:10261000FA7A257B1C90209478DA79018015E4936E
:10262000A3AD82AE838A828B83F0A3AA82AB838D13
:10263000828E83D8E9D9E77582417583B574061215
:102640002ACE75828875834A7400122ACEC0D0259E
:1026500018C582C0E0E51934FFC583C0E0E518C3A2
:10266000958224F310AF0885831985821880088528
:102670008319858218D2AFC8F0A3E9F0A3EAF0A3CA
:10268000EBF0A37908E709F0A3D8FAECF0A3EDF09A
:10269000A3EEF0A3EFF0A3D0E0F0A3D0E0F0A3D03E
:1026A000E0F0A3E520F0A3E5F0F0A3221201000280
:1026B000020000205104A8160900010203010902CA
:1026C0004300020100801909040000010202010018
:1026D000052400100104240202052406000105243B
:1026E0000100010705820340004009040100020ABD
:1026F00000000007058402400000070504024000B6
:1027000000C7260000EA260000851983851882E0AC
:10271000C0E0A3E0F9A3E0FAA3E0FBA37808E0F6A9
:1027200008A3DFFAE0FCA3E0FDA3E0FEA3E0FFA323
:10273000E0C0E0A3E0C0E0A3E0F5D0A3E0F520A373
:10274000E0A3F5F010AF088583198582188008850D
:102750008319858218D2AFD082D083D0E0F8D0E040
:1027600032E4731E75F0108E218F228582268583B8
:1027700025851882851983E0CEA3E0CF8526828542
:102780002583EBC9EAC8EDCBECCAC3E833C8E9330B
:10279000C9EA33CAEB33CBC3EA9EF524EB9FF5239A
:1027A000B35004AB23AA24EC33CCED33CDD5F0DA0F
:1027B000AE21AF2222D083D082ECC0E0EDC0E0E4B5
:1027C00093A3FCE493A3FDED4C600D122910EC24BF
:1027D000FFFCED34FFFD80EFE493A3FCE493A3FD45
:1027E000ED4C600D1229B1EC24FFFCED34FFFD80AF
:1027F000EFD0E0FDD0E0FCE493A3C0E0E493C0E0C0
:1028000022D083D082E9C0E0E493A3C386F0C5F070
:1028100095F0F908E493A386F0C5F095F0700BE409
:1028200093A3C3994005E9048002A3E475F002A4D0
:102830002582F582E5F03583F583D0E0F9E493A3B2
:10284000C0E0E493C0E022851983851882E0A3FEEE
:10285000E0A3F5207808E0A3F608DFFAE0A3FFE0A4
:10286000A3C0E0E0A3C0E0E0A3C0E0E0A3C0E0E0DC
:10287000A3C0E010AF08858218858319800885827F
:1028800018858319D2AFD083D082022AD4C0E074D5
:10289000F212264DA2AFE433FED2AFE58AA2E25097
:1028A0000790050FE0D2E0F0E58AA2E3500790051B
:1028B0000FE0D2E1F0758A00C2EB7A107B00900540
:1028C0000BE0F9123324EEA2E092AF7F0102270958
:1028D000851983851882E0A3FEE0A3F5207808E03F
:1028E000A3F608DFFAE0A3FFE0A3C0E0E0A3C0E0A6
:1028F000E0A3C0E0E0A3C0E010AF088582188583A4
:10290000198008858218858319D2AFD083D082229E
:10291000C0E0C3E49396087401939618400FE493C3
:1029200066700808740193661870007019A3A3C339
:10293000E49396087401939618A3A3400DD0E0D0B9
:10294000E0D0E00227F1A3A3A3A3A3A3D0E02274C5
:102950000480087403800474028000CCC0E0EDC0E1
:10296000E0E518C39CCCAD1950011D10AF068C18C2
:102970008D1980068C188D19D2AF122A50D0E0FD27
:10298000D0E0FC2274028000CCC0E0EDC0E0E5188D
:10299000C39CCCAD1950011D10AF068C188D198049
:1029A000068C188D19D2AF122A2ED0E0FDD0E0FC93
:1029B00022C0E0C0F088F0E49366700808740193C8
:1029C00066187000A8F0A3A3700BD0F0D0E0D0E0A0
:1029D000D0E00227F1A3A3D0F0D0E022D083D082B0
:1029E000CCC0E0E493A36006122A711470FAE49359
:1029F000A36006122BE61470FAD0E0FCE493A3C0A7
:102A0000E0E493C0E022C0E074F212264D75890024
:102A1000C2C59019F3E0700E7A007B109005E2E0D9
:102A2000F91233248003123C067F01022709CAC031
:102A3000E0E493A3C582CCC582C583CDC583F0A352
:102A4000C582CCC582C583CDC583DAE5D0E0CA2274
:102A5000CAC0E0E0A3C582CCC582C583CDC583F0E2
:102A6000A3C582CCC582C583CDC583DAE6D0E0CAD2
:102A700022C0E0E493A3D39C5010E493A3C39C40F2
:102A80000AD0E0D0E0D0E00229F9A3A3A3D0E0224D
:102A90007009080808226016181818C6C333C6083B
:102AA000C633C608C633C608C633C6D5E0EA22C058
:102AB00008C3E096F50808A3E096420808A3E0964C
:102AC000420808A3E09645087001D3D00822C09FB1
:102AD000F59FE473D09F22D083D082C09FE493C03F
:102AE000E0740193C0E0740293F59F2200C0D025EA
:102AF0001810AF08F518500C05198008F518500289
:102B00000519D2AFD0D0222518F58210AF08F518DC
:102B1000400C15198008F51840021519D2AF851917
:102B200083227404800A7403800674028002740194
:102B3000C0E0F404122B07D0E0122DB022C0E0C098
:102B4000D0E8C0E0A8A8D2AFC2C7E8A2E792AFD051
:102B5000E0F8D0D0D0E032BB0102E722C082C083CF
:102B600089828A83BB0003E08002E493D083D08211
:102B7000226016080808C6C313C618C613C618C6AE
:102B800013C618C613C6D5E0EA222518F8E435198D
:102B9000F9222518FAE43519FB222518FCE4351929
:102BA000FD22C3E0C696F608A3E0C696F608A3E0A9
:102BB000C696F608A3E0C696F622251810AF08F5CB
:102BC00018400C15198008F51840021519D2AF22CB
:102BD000BB000EC082C0838A838982F0D083D082FA
:102BE00022BB0101F722C0E0E493A36C7009D0E09E
:102BF000D0E0D0E00229F9A3A3D0E022E76670106C
:102C00000809E766700A0809E76670040809E766BC
:102C100022E066701008A3E066700A08A3E0667000
:102C20000408A3E06622C3E09608A3E09608A3E0A8
:102C30009608A3E096A2D265D03322C3E697F608A1
:102C400009E697F60809E697F60809E697F622C31B
:102C5000E49396087401939608740293960874039B
:102C6000939622C3E096F008A3E096F008A3E096BE
:102C7000F008A3E096F022E026F008A3E036F00882
:102C8000A3E036F008A3E036F022E647F60809E6AE
:102C900047F60809E647F60809E647F622E627F66A
:102CA0000809E637F60809E637F60809E637F62296
:102CB000E056F608A3E056F608A3E056F608A3E0AF
:102CC00056F622700422600D18C6C333C608C633F8
:102CD000C6D5E0F41822E056F008A3E056F008A3A9
:102CE000E056F008A3E056F022E493F6087401934E
:102CF000F608740293F608740393F622E026F608A9
:102D0000A3E036F608A3E036F608A3E036F622E69E
:102D100057F60809E657F60809E657F60809E65790
:102D2000F622E4C396F608E496F608E496F608E47C
:102D300096F622C3E09608A3E09608A3E09608A3BF
:102D4000E09622C6F4C608C6F4C608C6F4C608C68D
:102D5000F4C622600D08C6A2E713C618C613C6D56E
:102D6000E0F322C3E7960809E7960809E796080901
:102D7000E7962275D00075813F7518D1751904004A
:102D80000225EAE0F608A3E0F608A3E0F608A3E0CF
:102D9000F622600C08C6C313C618C613C6D5E0F4E5
:102DA00022E6F008A3E6F008A3E6F008A3E6F02286
:102DB000CAC0E0E6F0A308DAFAD0E0FA22ECF0A309
:102DC000EDF0A3EEF0A3EFF022E0FCA3E0FDA3E022
:102DD000FEA3E0FF22E0FAA3E0FBA3E0FCA3E0FDFA
:102DE00022E0F8A3E0F9A3E0FAA3E0FB22E8F0A3D5
:102DF000E9F0A3EAF0A3EBF022E5C754F84401F5AB
:102E0000C77901222518F582E43519F58322122AA3
:102E1000D759AC06122AD7A0AC06122AD763AD0642
:102E2000122AD78BAD06122AD7B1AD06122AD7C502
:102E3000AD06122AD7DAAD06122AD7E3AD06122A5A
:102E4000D75FFA03122AD78BFA03122AD733FD036E
:102E5000122AD78AFD03122AD7C6FD03122AD7DA0F
:102E6000FD03122AD7F3FD03122AD7E4FE03122A28
:102E7000D7C0FF03122AD7D4FF03122AD73BBA06C2
:102E8000122AD75FBA06122AD778BA06122AD7B6FC
:102E9000BA06122AD7E6BA06122AD713BB06122A96
:102EA000D779BB06122AD77CBB06122AD786BB0667
:102EB000122AD793BB06122AD724AE06122AD74469
:102EC000AE06122AD783AE06122AD7A1AE06122A60
:102ED000D7BCAE06122AD722AF06122AD72EAF06CB
:102EE000122AD78BAF06122AD7AFAF06122AD77095
:102EF000B006122AD77DB006122AD78EB006122A43
:102F0000D742C706122AD75AC706122AD786C7063B
:102F1000122AD71D8F06122AD7779006122AD78534
:102F20009006122AD7989006122AD7AD9006122A38
:102F3000D7C29006122AD7D59006122AD7519106E9
:102F4000122AD7B69106122AD74C9206122AD725F2
:102F50009306122AD7359306122AD7449306122ACB
:102F6000D747FF04122AD76BFF04122AD793FF0416
:102F7000122AD7BBFF04122AD772FD02122AD79950
:102F8000FD02122AD7B8FD02122AD71CFE02122A0D
:102F9000D7ACA806122AD7C5A806122AD7D1A806E8
:102FA000122AD7E5A806122AD703A906122AD70D96
:102FB000A906122AD717A906122AD72AA906122A61
:102FC000D7B7A906122AD726AA06122AD755AA06C3
:102FD000122AD7A3AA06122AD7F2AA06122AD70DB6
:102FE000AB06122AD717AB06122AD728AB06122A2D
:102FF000D76BAB06122AD7A77F00122AD756D50562
:10300000122AD782D505122AD79FD505122AD7B200
:10301000D505122AD7CDD505122AD727D605122ACB
:10302000D755D605122AD75BDA05122AD7ACDB05AD
:10303000122AD7DEDB05122AD740DC05122AD7B0C8
:10304000DD05122AD7D8DD05122AD7EDDD05122AB3
:10305000D7FDDD05122AD73DDE05122AD77FDE0512
:10306000122AD78FDE05122AD7F8BC06122AD712E9
:10307000BD06122AD73ABD06122AD753BD06122A18
:10308000D777BD06122AD795BD06122AD7ACBD0642
:10309000122AD7DABD06122AD7F5BD06122AD78919
:1030A000C706122AD73FFC05122AD74FFC05122A61
:1030B000D754FD05122AD786FD05122AD7ACFD0587
:1030C000122AD7CFFD05122AD7E6FD05122AD720EE
:1030D000FE05122AD789FE05122AD7CBFE05122A31
:1030E000D712FF05122AD73FFF05122AD776FF0510
:1030F000122AD79E7B00122AD7007C00122AD7A75B
:103100007C00122AD7DE7C00122AD7C5A205122A1B
:10311000D774A305122AD7A6A505122AD77DA8051C
:10312000122AD70FAA05122AD771AA05122AD7F197
:10313000AD05122AD739AF05122AD728BE06122AA2
:10314000D773BE06122AD7008006122AD7BF82067E
:10315000122AD75C8306122AD7888306122AD7B68A
:103160008306122AD7EB8306122AD7138406122A63
:10317000D7738406122AD7D6F304122AD748F80444
:10318000122AD73FFA04122AD76DFB04122AD74D10
:10319000FC04122AD7FBFD04122AD7C7FE04122A08
:1031A000D71BFF04122AD7C4B006122AD7CEB00606
:1031B000122AD7EFB006122AD7289405122AD73E32
:1031C0009905122AD7A39A05122AD77F9C05122A9D
:1031D000D7039D05122AD7A29D05122AD79B9E05CB
:1031E000122AD7CD9F05122AD7E5A005122AD700AB
:1031F000A205122AD725BA04122AD75DBA04122AC8
:10320000D70BC504122AD708C604122AD75AC704F6
:10321000122AD7B7C804122AD790C904122AD75E37
:10322000CA04122AD745CB04122AD734CC04122A56
:10323000D7DCCC04122AD70CCD04122AD7BECE0478
:10324000122AD734CF04122AD74DCF04122AD7AE70
:10325000D004122AD76CD104122AD70BD204122A16
:10326000D7B4D204122AD722D304122AD7C0D30447
:10327000122AD743D404122AD761D404122AD77849
:10328000D504122AD746D604122AD7F7D604122A12
:10329000D7CDB806122AD7F7B806122AD70BBA0626
:1032A000122AD70EBA06122AD7C3C406122AD70585
:1032B000C506122AD747C506122AD757C506122AAD
:1032C000D7B1F505122AD7EFF505122AD758F6051A
:1032D000122AD777F605122AD790F605122AD74276
:1032E000F705122AD74BF705122AD79CF705122AA1
:1032F000D7D2F705122AD7E9F705122AD755F805CC
:10330000122AD7E5F805122AD71BF905122AD75F2A
:10331000F905122AD7C0F905122AD7F2F905122A9F
:10332000D765FA05122AD7B9FA05122AD7F6FA058F
:10333000122AD72DFB05122AD73FFB05122AD75197
:10334000FB05122AD789FB05122AD7D5FB05122ABD
:10335000D713FC05122AD7278506122AD7678606B7
:10336000122AD78A8606122AD79B8606122AD7B334
:103370008806122AD7D38806122AD704B306122A3F
:10338000D73AB306122AD782B306122AD7DEB4067A
:10339000122AD7008005122AD73E8105122AD77A31
:1033A0008105122AD7498305122AD7738305122A69
:1033B000D70A8605122AD74A8605122AD7DF87053B
:1033C000122AD7748805122AD7D28805122AD765FF
:1033D0008905122AD79F8905122AD7E18905122A61
:1033E000D7548B05122AD7D88C05122AD7FD8E0503
:1033F000122AD72B8F05122AD7578F05122AD7608A
:103400008F05122AD7B68F05122AD7469005122AA1
:10341000D7499305122AD7CB9305122AD77BC60624
:10342000122AD791C606122AD79BC606122AD7752A
:103430009306122AD78B9306122AD7309406122AA3
:10344000D76F9406122AD78C9406122AD7BD9406F9
:10345000122AD70A9506122AD73E9506122AD7793C
:103460009506122AD7659706122AD75DC006122A3A
:10347000D7B2C006122AD7FDC006122AD74ABF0605
:10348000122AD7BCBF06122AD7FABF06122AD73B88
:10349000C006122AD7D7F701122AD7DDF701122A60
:1034A000D724F801122AD730FA01122AD760FA017C
:1034B000122AD7CCFA01122AD789FB01122AD7CABD
:1034C000FB01122AD7FCFB01122AD786FC01122A23
:1034D000D79DFC01122AD7AAFC01122AD7B4FC01FD
:1034E000122AD754FE01122AD746FF01122AD7A466
:1034F000FF01122AD7BFDE05122AD7D5DE05122A10
:10350000D787DF05122AD7B1E005122AD7A6E10531
:10351000122AD743E205122AD77EE205122AD7F0F3
:10352000E205122AD74EE305122AD75EE305122AD6
:10353000D785E305122AD7D7E305122AD740E50538
:10354000122AD745E505122AD767E505122AD7FBC7
:10355000C506122AD729C606122AD75EC606122A1F
:10356000D760C606122AD762C606122AD773C606C5
:10357000122AD775C606122AD778C606122AD73E4F
:10358000B706122AD7ACB706122AD7CEB706122A28
:10359000D706B806122AD73CB806122AD794A50631
:1035A000122AD7DBA506122AD7FEA506122AD73182
:1035B000A806122AD74BA806122AD776A806122ADE
:1035C000D7F7C606122AD73CE705122AD715E80511
:1035D000122AD7FBE805122AD70CE905122AD71DB3
:1035E000E905122AD769E905122AD75DEB05122AE7
:1035F000D7B7EC05122AD7E7EC05122AD7ABED05B1
:10360000122AD709EE05122AD7FFDA02122AD75A50
:10361000DB02122AD7FADB02122AD777DD02122A3E
:10362000D763DE02122AD720DF02122AD737DF0241
:10363000122AD786DF02122AD7FADF02122AD750BF
:10364000E002122AD763E002122AD7C7E002122A48
:10365000D736E102122AD74EE102122AD7F9E30245
:10366000122AD707E502122AD762E502122AD7B634
:10367000E502122AD760E802122AD7B0E802122A1D
:10368000D731E902122AD773E902122AD74DEA028A
:10369000122AD786EA02122AD7A5EA02122AD7F0FE
:1036A000EA02122AD710EB02122AD7CBEB02122A17
:1036B000D7B2EC02122AD7BDEC02122AD70BED02C8
:1036C000122AD760ED02122AD7ACED02122AD710C7
:1036D000EF02122AD743EF02122AD7C8F102122AA8
:1036E000D7FBF102122AD707F302122AD734F302CA
:1036F000122AD7ACF302122AD787F402122AD7C9AA
:10370000F402122AD73DF502122AD757F602122ADE
:10371000D7A4F602122AD7AEF602122AD7B1F602C1
:10372000122AD7BBF602122AD7D7F602122AD74F8F
:10373000F702122AD788F702122AD7A4F702122A10
:10374000D7D0F702122AD7F7F702122AD71BF802AE
:10375000122AD794F802122AD707F902122AD74A56
:10376000F902122AD754F902122AD783F902122A2F
:10377000D799F902122AD7B5F902122AD7E4F90229
:10378000122AD704FA02122AD74DFA02122AD7882F
:10379000FA02122AD794FB02122AD7F7FC02122A45
:1037A000D716FD02122AD72DFD02122AD73FFD029D
:1037B000122AD770C206122AD781C206122AD70A45
:1037C000C306122AD7F27F00122AD785EE05122AE5
:1037D000D7D4EE05122AD792F005122AD765F20542
:1037E000122AD7A3F205122AD779F305122AD78213
:1037F000F405122AD7A4F405122AD700F505122AD7
:10380000D781F505122AD7725000122AD79450009A
:10381000122AD7FE5100122AD7475200122AD7B9CE
:103820005200122AD7375300122AD79C5300122A6B
:10383000D7E35300122AD7525400122AD7F8540063
:10384000122AD76D5500122AD7B25500122AD7C6B0
:103850005900122AD7DF5B00122AD71D5C00122AFA
:10386000D75C5C00122AD7765F00122AD7FD5F0072
:10387000122AD79D6100122AD7D46200122AD7E4F7
:103880006300122AD7556400122AD7326500122A23
:10389000D7B66500122AD7CA6500122AD7926600E9
:1038A000122AD7BC6700122AD7E96900122AD7FC6E
:1038B0006B00122AD7D86C00122AD7696F00122A1F
:1038C000D73E7000122AD75C7100122AD7AF74005D
:1038D000122AD7BF7400122AD73F7600122AD7DCEB
:1038E0007600122AD7FB7700122AD78D7800122A89
:1038F000D7E47900122AD72B7A00122AD7DA7A0075
:10390000122AD7AAD704122AD74AD804122AD7B61D
:10391000D804122AD7D1D804122AD774D904122A6B
:10392000D7BCD904122AD7E8DA04122AD727DB0435
:10393000122AD79EDB04122AD7EFDB04122AD756AD
:10394000DC04122AD702DD04122AD7E5DF04122A8A
:10395000D7FEE004122AD781E104122AD744E304F7
:10396000122AD7E9E304122AD793E404122AD7F8DB
:10397000E404122AD767E504122AD786E604122A3D
:10398000D77FE704122AD7C9E704122AD7E0E70451
:10399000122AD79FE804122AD7DEE804122AD75940
:1039A000E904122AD7DDEA04122AD775EC04122A98
:1039B000D7E3ED04122AD745EF04122AD757F004B3
:1039C000122AD7EAF004122AD758F104122AD76A29
:1039D000F204122AD7ACDA03122AD715DB03122A13
:1039E000D75DDB03122AD7A1DB03122AD714DC032D
:1039F000122AD76EDC03122AD7A9DC03122AD74376
:103A0000DD03122AD79DDD03122AD709DF03122A0C
:103A1000D782DF03122AD7ACDF03122AD7C0E00314
:103A2000122AD7D4E103122AD7FCE103122AD7FACB
:103A3000E203122AD70BE303122AD723E303122A45
:103A4000D729E403122AD74CE403122AD71BE50333
:103A5000122AD745E503122AD75CE503122AD7823A
:103A6000E503122AD7C1E503122AD7E1E503122A9A
:103A7000D708E603122AD720E603122AD703E70362
:103A8000122AD75DE703122AD7C4E803122AD742C5
:103A9000E903122AD766E903122AD77DE903122A1D
:103AA000D751EA03122AD7EAEA03122AD710EB0306
:103AB000122AD760EC03122AD77FEC03122AD7FE12
:103AC000EC03122AD735ED03122AD773ED03122A1D
:103AD000D709EE03122AD77EEE03122AD762EF032C
:103AE000122AD740F103122AD715F203122AD761FE
:103AF000F203122AD76CF303122AD78AF403122A8C
:103B0000D7A8F503122AD7B6F503122AD7B2F603BF
:103B1000122AD754F703122AD79AF703122AD7AFDB
:103B2000F703122AD7C1F803122AD762F903122A1F
:103B3000D7BEF903122AD7E69E06122AD726A00678
:103B4000122AD7EEA006122AD756A106122AD7CAE1
:103B5000A106122AD7729706122AD7909706122A20
:103B6000D7D49706122AD7FA9706122AD721980691
:103B7000122AD7399806122AD724C406122AD769DE
:103B80009806122AD7139906122AD7559906122A8F
:103B9000D76A9906122AD7719A06122AD78C9A06E2
:103BA000122AD7959A06122AD79E9A06122AD7A7C2
:103BB0009A06122AD7B19A06122AD72E9B06122AE3
:103BC000D7278A06122AD7538E06122AD76F8E0657
:103BD000122AD7748E06122AD7BDB506122AD75ECE
:103BE000A206122AD720AC06122AD7ECA306122A64
:103BF000D716A406122AD75CA406122AD765A506F2
:103C0000122AD79DBB06122AD713C806122AD7CE6E
:103C1000FF05122AD7008002122AD7578002122AE3
:103C2000D7C38002122AD74F8102122AD7058202F7
:103C3000122AD74D8202122AD7668202122AD78907
:103C40008202122AD7AB8202122AD7E98202122AF2
:103C5000D7388302122AD7638302122AD7C183027C
:103C6000122AD7688402122AD7108502122AD78C0A
:103C70008502122AD7598602122AD7A08602122A52
:103C8000D7EC8602122AD7748702122AD7AD870290
:103C9000122AD7038802122AD71F8802122AD74E67
:103CA0008802122AD75A8A02122AD7888B02122A2D
:103CB000D7B48B02122AD7E88B02122AD7098C02BA
:103CC000122AD7188C02122AD7238C02122AD7D292
:103CD0008C02122AD7428D02122AD7CD8D02122AC7
:103CE000D7D58D02122AD7428E02122AD77E8E0293
:103CF000122AD7448F02122AD7179002122AD76CA1
:103D00009002122AD70B9102122AD7659102122A29
:103D1000D7AA9102122AD7439402122AD786950273
:103D2000122AD7709802122AD7549902122AD73829
:103D30009A02122AD75D9A02122AD76E9A02122A82
:103D4000D7E09A02122AD7779B02122AD7EB9B025E
:103D5000122AD7DB9C02122AD7009D02122AD718FA
:103D60009E02122AD7369E02122AD7529E02122A89
:103D7000D7C59E02122AD7D49E02122AD75C9F0270
:103D8000122AD759A002122AD766A002122AD76F88
:103D9000A002122AD751A202122AD77DA302122A08
:103DA000D78DA302122AD7C8A402122AD747A50288
:103DB000122AD778A602122AD7B4A602122AD78EC0
:103DC000A802122AD74BAC02122AD75FAC02122AE1
:103DD000D769AC02122AD773AC02122AD77DAC0283
:103DE000122AD787AC02122AD7A0AC02122AD7AA6D
:103DF000AC02122AD721AD02122AD72CAD02122A08
:103E0000D75BAD02122AD783AD02122AD78EAD023C
:103E1000122AD7F3AD02122AD7FDAD02122AD70813
:103E2000AE02122AD72CAE02122AD750AE02122AA4
:103E3000D7C2AE02122AD70BAF02122AD727AF027F
:103E4000122AD798AF02122AD7E4AF02122AD72D2E
:103E5000B002122AD76BB002122AD7ECB002122A93
:103E6000D793B102122AD758B302122AD7BDB30290
:103E7000122AD7EBB402122AD711B502122AD75947
:103E8000B602122AD793B902122AD791BB02122A7C
:103E9000D75CBD02122AD7F5BD02122AD7F6BF029F
:103EA000122AD7ABC002122AD7E4C002122AD75472
:103EB000C102122AD75EC102122AD787C302122A70
:103EC000D78AC402122AD7C7C502122AD71EC60231
:103ED000122AD7C9C602122AD779C802122AD7C60F
:103EE000C902122AD7E6C902122AD73BCA02122AED
:103EF000D73CCB02122AD764CB02122AD7C3CB02FB
:103F0000122AD7BBCC02122AD732CD02122AD745A9
:103F1000CE02122AD7B3CE02122AD7B2CF02122A69
:103F2000D70CD202122AD735D202122AD79BD3023B
:103F3000122AD71DD502122AD774D502122AD722E7
:103F4000D602122AD7C7D602122AD72AD702122A95
:103F5000D7E8D702122AD77AD802122AD7D9D8029C
:103F6000122AD71BD902122AD74CD902122AD7A358
:103F7000DA02122AD7008003122AD7328003122ACB
:103F8000D76B8003122AD7348203122AD778820390
:103F9000122AD74E8303122AD7AD8303122AD7C31E
:103FA0008403122AD70F8503122AD79D8703122A6A
:103FB000D7818A03122AD7C88B03122AD7608C03B1
:103FC000122AD76C8C03122AD7B58C03122AD7F782
:103FD0008D03122AD7ED8E03122AD7178F03122AC8
:103FE000D76D8F03122AD7C68F03122AD7399003B1
:103FF000122AD76F9203122AD7F19303122AD7DC21
:104000009403122AD7269603122AD75E9803122AFF
:10401000D75B9B03122AD76A9B03122AD7FE9B0306
:10402000122AD7A99C03122AD7EC9C03122AD7354F
:104030009D03122AD7859D03122AD7E99D03122AD0
:10404000D75B9E03122AD7779E03122AD7A69E0318
:10405000122AD7E59E03122AD7E09F03122AD78F90
:10406000A003122AD70CA303122AD73EA403122AB4
:10407000D716A503122AD798A503122AD7CDA903CC
:10408000122AD7FCA903122AD757AA03122AD78AC1
:10409000AA03122AD702AB03122AD735AB03122A7E
:1040A000D796AB03122AD7E6AB03122AD7B3AC03D9
:1040B000122AD76CAD03122AD730AE03122AD7AA20
:1040C000B003122AD70CB203122AD75DB303122A07
:1040D000D781B403122AD784B403122AD7B3B40306
:1040E000122AD7ABB603122AD76AB703122AD79976
:1040F000B703122AD7B7B803122AD77FB903122AF7
:10410000D740BB03122AD7B0BB03122AD7E2BB03A6
:10411000122AD702BC03122AD771BC03122AD76A0B
:10412000BD03122AD78EBD03122AD701BE03122A5D
:10413000D72AC003122AD789C003122AD7DDC003A9
:10414000122AD70CC303122AD7EFC303122AD77738
:10415000C403122AD75BC503122AD7E5C503122A66
:10416000D7F9C503122AD70DC603122AD721C603D1
:10417000122AD735C603122AD762C603122AD7924B
:10418000C603122AD74DC803122AD723C903122AFD
:10419000D7C7C903122AD71CCA03122AD77FCA035A
:1041A000122AD7C8CA03122AD7EFCA03122AD7B7CE
:1041B000CB03122AD75DCC03122AD7E3CD03122AF0
:1041C000D76ECE03122AD7B5CE03122AD727CF0334
:1041D000122AD77CD003122AD725D103122AD75905
:1041E000D103122AD771D103122AD714D203122A6B
:1041F000D790D403122AD738D603122AD756D6031B
:10420000122AD774D603122AD740D703122AD78E80
:10421000DA03122AD7948101122AD7D68101122AF1
:10422000D7438701122AD78F8701122AD7D5870152
:10423000122AD7268901122AD78B8901122AD7CFB1
:104240008901122AD7358B01122AD7908E01122AA2
:10425000D7C38F01122AD7529B01122AD7E29B01A2
:10426000122AD7CC9E01122AD731A001122AD79444
:10427000A001122AD7B0A101122AD71AA301122A2B
:10428000D7F9A301122AD767A601122AD7F9A701E5
:10429000122AD78AA801122AD7A9A901122AD73629
:1042A000AA01122AD740AA01122AD768AA01122A03
:1042B000D70BAB01122AD7F6AB01122AD7BEAC013D
:1042C000122AD74BAD01122AD761AD01122AD77E2F
:1042D000AD01122AD7A7AD01122AD7D4AD01122AF7
:1042E000D718B001122AD7EBB001122AD72FB1018B
:1042F000122AD7B1B101122AD752B201122AD78499
:10430000B201122AD7CBB201122AD7FEB201122A69
:10431000D742B301122AD791B301122AD796B3011B
:10432000122AD7F2B301122AD736B401122AD720A3
:10433000B501122AD785B501122AD7E3B501122A91
:10434000D762B601122AD7DAB901122AD7DDBA012B
:10435000122AD773BC01122AD7B6BF01122AD75826
:10436000C001122AD7A1C201122AD75CC301122AA6
:10437000D79BC301122AD75FC501122AD77CC5017A
:10438000122AD785C501122AD78EC501122AD799BC
:10439000C501122AD7B8C501122AD7DCC701122AD3
:1043A000D739C801122AD743C801122AD74DC801EC
:1043B000122AD7B0C801122AD70CC901122AD7195C
:1043C000CA01122AD77ACA01122AD78BCB01122A24
:1043D000D7D4CB01122AD79ECC01122AD7B5CD0152
:1043E000122AD779CE01122AD7C5CF01122AD7C9EE
:1043F000D001122AD7C2D101122AD7DAD101122A4A
:10440000D711D201122AD71BD201122AD725D201E5
:10441000122AD730D201122AD74ED201122AD796A9
:10442000D201122AD7F4D201122AD71BD301122AA1
:10443000D72DD301122AD7D6D301122AD70FD401F0
:10444000122AD740D501122AD79DD501122AD78E1C
:10445000D601122AD7C4D601122AD734D701122A7C
:10446000D7B0D701122AD731D901122AD758DA0189
:10447000122AD71ADB01122AD7E8DB01122AD76DDC
:10448000DC01122AD71CDD01122AD704DE01122A10
:10449000D79DDE01122AD779DF01122AD7E1DF0189
:1044A000122AD7A0E001122AD7FCE001122AD76015
:1044B000E101122AD726E201122AD749E201122A83
:1044C000D703E301122AD725E301122AD786E30195
:1044D000122AD7B6E501122AD7AFE601122AD75B16
:1044E000E701122AD778E901122AD7C1E901122A75
:1044F000D70CEA01122AD768EA01122AD7C6EA01C4
:10450000122AD7EAEA01122AD70EEB01122AD74360
:10451000EB01122AD76BEB01122AD7B0EB01122A5A
:10452000D70EEC01122AD767EC01122AD761ED01F0
:10453000122AD70DEF01122AD752EF01122AD77B88
:10454000EF01122AD704F001122AD777F001122ABC
:10455000D785F001122AD7A9F001122AD7FFF0015E
:10456000122AD71AF101122AD7D5F101122AD7013E
:10457000F201122AD744F201122AD7A7F201122A15
:10458000D7B7F401122AD7E3F401122AD79EF50116
:10459000122AD782F601122AD716F701122AD7D685
:1045A000CA05122AD70ECB05122AD72FCB05122AFD
:1045B000D771CB05122AD7D5CB05122AD7DFCB0569
:1045C000122AD7EFCB05122AD726CC05122AD7CF2D
:1045D000CF05122AD797D105122AD77BD305122AE5
:1045E000D71DD405122AD7A7D405122AD750800484
:1045F000122AD7F98004122AD7D88104122AD7E4C4
:104600008204122AD7048304122AD7268404122A89
:10461000D7D68504122AD7438604122AD7148704D2
:10462000122AD71A8804122AD7928804122AD7CDC0
:104630008804122AD7268904122AD7618904122AEB
:10464000D7AA8904122AD73E8A04122AD7D48A0408
:10465000122AD7A98B04122AD77C8C04122AD70AD3
:104660008D04122AD7308D04122AD75D8D04122AA8
:10467000D78E8D04122AD75B8E04122AD76B8E0434
:10468000122AD7BE8E04122AD7CB8E04122AD7D86C
:104690008E04122AD7E18E04122AD7458F04122ADB
:1046A000D7A38F04122AD7EE8F04122AD7099004B9
:1046B000122AD7309004122AD74D9004122AD759C3
:1046C0009004122AD7EA9104122AD7039204122ADC
:1046D000D77F9204122AD7929204122AD7A2920468
:1046E000122AD7469304122AD7B29404122AD7C5A5
:1046F0009504122AD7659604122AD76F9604122AB7
:10470000D7EE9604122AD7FF9604122AD73E9704B2
:10471000122AD76C9704122AD7399804122AD790F4
:104720009804122AD7C99804122AD71F9904122A6A
:10473000D73D9904122AD78B9904122AD7569A0486
:10474000122AD7A49A04122AD7F19A04122AD774EB
:104750009B04122AD79E9B04122AD7D49B04122AA8
:10476000D7E39B04122AD7429C04122AD7BA9C048E
:10477000122AD7FB9C04122AD74B9D04122AD77603
:104780009D04122AD7909D04122AD7AA9D04122AAA
:10479000D77F9E04122AD7899E04122AD7C49E046A
:1047A000122AD7D49E04122AD7DD9E04122AD72EAD
:1047B0009F04122AD7429F04122AD764A004122A07
:1047C000D777A004122AD78CA004122AD71FA104DD
:1047D000122AD793A104122AD738A204122AD74347
:1047E000A204122AD7A6A304122AD7C2A304122A0B
:1047F000D70EA404122AD77CA404122AD7AEA4048C
:10480000122AD7C8A404122AD728A504122AD7C767
:10481000A504122AD712A604122AD765A804122AC0
:10482000D7FDA804122AD774A904122AD7D1AB0441
:10483000122AD7E9AB04122AD7ECAB04122AD7F814
:10484000AB04122AD70CAC04122AD714AC04122AD7
:10485000D74BAC04122AD73FAD04122AD7C9AD04F6
:10486000122AD74BAE04122AD7CBAE04122AD7A2F3
:10487000AF04122AD7C4AF04122AD75DB004122A9B
:10488000D7BAB004122AD7BDB004122AD72CB1046B
:10489000122AD778B204122AD78BB304122AD71659
:1048A000B404122AD729B504122AD7F0B504122A63
:1048B000D721B604122AD747B604122AD750B60415
:1048C000122AD77FB604122AD72FB704122AD7DFAD
:1048D000B704122AD752B804122AD7F5B804122AFC
:1048E000D768B904122AD7A7B904122AD7F0B90495
:1048F000122AD757C206122AD7EFC106122AD76B3F
:10490000C106122AD7F1C506122AD789C506122A6E
:10491000D771C506122AD761C506122AD7DDFF0155
:10492000122AD7F57F00122AD70AC406122AD76C9A
:10493000C306122AD75BC306122AD7DBBC05122A8C
:10494000D72ABC05122AD746BB05122AD799B90522
:10495000122AD758B905122AD72FB905122AD7DC3F
:10496000B805122AD735B805122AD79DB705122ADD
:10497000D77BB705122AD723B705122AD7E9B60580
:10498000122AD767B605122AD706B605122AD77695
:10499000AB06122AD7C1B505122AD7CFC706122AED
:1049A000D7819E06122AD7C29C06122AD7ED9B06F3
:1049B000122AD7749B06122AD7669B06122AD7B0F2
:1049C000C406122AD7DCB405122AD700B405122A6D
:1049D000D7A8B305122AD718B305122AD760C40680
:1049E000122AD7D3B205122AD7B7B205122AD75C3A
:1049F000B105122AD71EB105122AD774A206122AAF
:104A0000D7F8B005122AD727C406122AD77CB005DA
:104A1000122AD79FCA05122AD754CA05122AD7FBD1
:104A2000C905122AD7CEC905122AD79DC905122A4F
:104A3000D76DC905122AD745C905122AD7E5C80579
:104A4000122AD7C7C805122AD78CC805122AD70C34
:104A5000C805122AD72FC405122AD70DC205122A5B
:104A6000D7C9BF05122AD743BF05122AD7C8BD052B
:104A7000122AD7F1BE05122AD77CBE05122AD735D5
:104A8000BE05122AD751980600000080FB8F000156
:104A900000E71987000100E61935000400A31C2572
:104AA000000200A71C26000200A91C27000200AB80
:104AB0001C28000100B51C29000100B61C8400045C
:104AC00000B71C86000100BB1C2A000100BC1C2B87
:104AD000000100BD1C2C000100C11C2D000800C8F5
:104AE000192E000100C21C2F000100C31C30000160
:104AF00000C41C31000100C51C32000100D0193374
:104B0000000100D11934000100C61C36000100D29A
:104B10001938000100C71C39000100C01C830002C5
:104B200000DB1C63000100E31964000100BE1C658A
:104B3000000100BF1C6D000100E41971000800C0F5
:104B40001966000100DA1C43000100CB1C4400027E
:104B500000CC1C45000100CE1C46000200CF1C47C3
:104B6000000800DB1948000100D11C4B000100D2F5
:104B70001C04000100DD1CA1000100E01C37000145
:104B800000DF1C88000100DE1C3C000100D3193D41
:104B9000000100C81C49000200D31C67000100E5A9
:104BA000194D000200D51C4E000100D71C4F000219
:104BB00000D81C3E000100DA1951000100D419523E
:104BC000000100C91C53000100CA1C54000100D59B
:104BD000190000000000000001363601010001024A
:104BE000010001030100010401060605020000079F
:104BF0000100340801000F090401010D0100FF0E3E
:104C000008000017020000190100FF1A0100011B33
:104C10000100FE1C0100081D0200001F0100012010
:104C2000010001210200002301000F2402000026E0
:104C300001000127010008280200FF2A0100072BBC
:104C40000102402C0100002D0100012E0100012F66
:104C50000100FF30010B1D310800003A0100083B44
:104C600001000F3C0100013D0100FF3E0400004235
:104C7000040000460400004A0400004E04000052F4
:104C8000040000560400005A0400000103710301EF
:104C900003010301030103010322030203010310C3
:104CA00003000300030003000300030003000342AA
:104CB0000300032403060300030003040312032577
:104CC0000323032503230304030403000300030059
:104CD000034403000300032303000365032100359D
:104CE0000381030003050300030003000300032501
:104CF00003230301017101010101011101010131CE
:104D000001010101018001100161013B00140063F8
:104D10000173017201620143010001130106013DAB
:104D2000013500040112010001000100010001042D
:104D3000010401330133013C01440132013600001A
:104D400001000165010001350081010001050182BA
:104D5000018301000103027102300160021102703F
:104D6000020102020202028002100261023A0041C4
:104D700000630273027202620243020002130238ED
:104D800000000200020402120200020002000200FF
:104D90000204020402370037003C024402000239D8
:104DA00000000200026502000235028102000205D5
:104DB00002820283020002030471040204600411EF
:104DC00004700402040204010402041004610400DB
:104DD000041404630473047204620443040004139F
:104DE0000406040004000404041204000400040087
:104DF000040004510464000004000400044404009E
:104E00000400040004000465040004350481046403
:104E100000050400048304000403007100300160F5
:104E20000011007000310220035004800010006166
:104E30000000001400630073007200620043000071
:104E40000013000600000000000400120000000033
:104E5000000000000004000400370037003C02445A
:104E60000000000000000000006500000035008127
:104E7000000000050000008300000036000100066D
:104E80000000000F00000000000000000000000013
:104E90000003FFFF00000403FFFF0000FFFF0FF40B
:104EA000010005C4040320000100000B0000000005
:104EB0000000000003010F000000000000000000DF
:104EC00000000000000000000000000000000000E2
:104ED000000000000000000000000042391300A0A4
:104EE000381F00A6381F80AC380100423902002864
:104EF0003803002E380400343805003A38060046DE
:104F0000383000643831005E383200703833007653
:104F10003835007C383400823836008838110094E7
:104F20003814009A3815005838FFFF00000A0000B6
:104F30000002000000040000000800000010000053
:104F40000020000000400000008000000000010080
:104F50000000020000000400000008000000100033
:104F6000000020000000400000015A420690420864
:104F70008A420BA84210243F0ABA42026042057ED0
:104F8000420766420C42420D4E4264FC3CFF000068
:104F900007ECFDFDFDECDCDCCCBCACAC9C9C8C7C63
:104FA0007C6C6C5C5C5C4C4C3C3C2C2C1C1C03EA0C
:104FB000F5E5D5D5C5B5A595958585757565655511
:104FC0005545453535252515150500160F00000BEF
:104FD000150B020002220F3300000E5A696742656A
:104FE00065416C6C69616E636530390103050709C1
:104FF0000B0D0F00020406080A0C0D00011916180B
:10500000161618230300303017181921301B1D1FE6
:1050100030303016181920231A1C1E3000393D3F3D
:10502000373C3C362C442D00034A49434E181A2580
:1050300005020C0E020B040B0A0708000F02040203
:10504000010101010902E803000000BE040A00009A
:10505000E8030E0000007F001E0503030004041097
:105060000A0C10080C280009040903010C0508109B
:1050700008FFC082C08390193EE4F0A3F07C177D46
:105080001A7AAB7B1812348C123D2C123F72123DEF
:10509000320265C374F512251874F5122BBAE9FFB4
:1050A0008A08EBFE8C09EF705D74026508703E792A
:1050B00008123798750A00780A122B2EE509F50AAE
:1050C000780A122B2EEEF50A780A122B2E9018C7AA
:1050D00012294F901CBBE0F97CDB7D19901CDB1280
:1050E0006FF3123D567407122AEC0251C674016523
:1050F0000860030251CB79081237987B00EEFAF969
:10510000123D980251C674016F600874026F60030B
:105110000251CBEA600674036508704779021237C2
:1051200098901CBBE0F99018C7122DD5123D44E9A8
:10513000F89018D6E0A2E34010E8700D901942E014
:1051400004F0640470031251EC74036508707990E4
:105150001943E0F9740129F0E9C39405406A12513A
:10516000EC806574016508706274016F790A702EB5
:105170001237987401122E04E4F07402122E047493
:1051800003F004122E04E4F0A3F0A3F0A3F07408DB
:10519000122E04E4F0AA18AB1912426C80441237A4
:1051A00098901CB112294F7A007B209018CBE0F91F
:1051B0001234447404122AEC901CBBE0F99018C716
:1051C000122DD5123D7AE9F8E8601790811712295F
:1051D0004F7A017B009018CBE0F91234447404122A
:1051E0002AEC740B122AEC7F030228479018C7E4BC
:1051F000F0A374F8F0A374FFF0A37407F02274F620
:10520000122518E9FFEAFE7AD1F91233008A828B5F
:1052100083E5824583702A7A027B001232E2EA4BF0
:10522000700E7A107B009018CBE0F91233248014B2
:105230008A828B8374D1F0EFA3F0EEF91232EE8004
:1052400003EFA3F002544D74F71225188908900457
:10525000D11277DFFF901C9EE0F47003A3E0F4709E
:105260002D9005E2E0901C9EF0A3E4F080208E8259
:105270008F83A31262CE600F8E828F83A3A31262EC
:10528000CBFAA9081238108E828F83127A19EE4F4A
:1052900070DC901C9EE0F47003A3E0F4600A901CA4
:1052A0009EE0FAA90812381012437A901895125C01
:1052B000171243747F0102284774F0122518890BD6
:1052C0008C0C7509007508007410122E041269C840
:1052D0007412122E041269BDFD8047125383F50E1D
:1052E000A3E0F50FAE08EE2EFEE433FFEA2EF582C2
:1052F000EB1275FD650E7004A3E0650F7019AE0921
:10530000EE2EFEE433FFEC2EF582ED3FF583E50E45
:10531000F0A3E50FF00509050AE50AC3950C40BBAB
:105320000508E508C3950B5005750A0080EBA9092F
:1053300080007F0802284774F4122518890B7D002D
:10534000740C122E041269C880010DEDC3950B5028
:105350002E750A008002050AE50AC39C50ECED2573
:10536000E0FEE433FFEA2EF582EB3F126BE51253C9
:105370008365087004A3E0650970DB790180027918
:10538000008014AE0AEE2EFEE433FFE82EF582E92B
:10539000125BDA22122AEC7F0402284774F61225E7
:1053A000181254377003A3E06D70177508D475098F
:1053B000187808122B2AEEFA1239487402122AECD5
:1053C000801F7508027509807808122B2A8C088DB9
:1053D000097808122B2A12542A12396C7404122AE2
:1053E000EC806A74F61225181254377003A3E06D2E
:1053F00070177508E17509187808122B2AEEFA1251
:10540000394E7402122AEC801F75080375098078E2
:1054100008122B2A8C088D097808122B2A12542A7C
:1054200012396C7404122AEC8023EE240E125BD71E
:10543000FD7C8012666B22EAFEEBFF126682FCE4C2
:1054400039FD901895E06C227402122AEC7F02025A
:10545000284774F612251874FE122BBAEAFEEBFFE9
:10546000851882851983E4F0A3125BCF1265AD1213
:1054700069BDFBECFA88828983A3A3E0F975090072
:10548000750800600574FF697005750882803E909C
:105490001895E06A7003A3E06B701BAA18AB191291
:1054A0004A3AE9FA8518828519831269D270037520
:1054B00008838A0980179019E6E06004640170058A
:1054C0007508818008E06402700375088085188281
:1054D0008519831269BDFDA908EEFAEFFB12395454
:1054E000E50960118518828519831269D260061258
:1054F0006FED12338A02544874F2122518EAFEEB5B
:10550000FF75080075090012667EF50AE439F50B8F
:1055100012437AEA650A7003EB650B7012124A288F
:10552000E914F50879017A0A7B19124A2280037579
:1055300009801275F7F50C780C122B2E750C0A7574
:105540000D19780C122B2A7808122B2E780A122BA0
:105550002AE509F5087808122B2E12644A1275FA0A
:10556000F97A057B8012395A740702794E74F61263
:105570002518E9FF7E0080328A828B83E0F508A33C
:10558000E0F8E4C8F9E50828E439F509EE25E0F883
:10559000E433F9EC28F582ED39F583E508F0A3E56D
:1055A00009F0EA2402FA50010B0EEEC39F40C90233
:1055B000544D74E812251874FC122BBA8A168B17F6
:1055C0007511007402122E04E4F0A31267B4F0A364
:1055D000F0125F143517125BA1F50B850A82F58373
:1055E000127AC4FEE439FF850A82850B83A3A3E007
:1055F000FA850A82850B83A3A3A3E0F9EAF508E400
:1056000039F509EEFAEFFB124416E964016016EE73
:10561000FAEFFB124416E9703D901895E06E7003A6
:10562000A3E06F6031127405122B2EE4F508F50922
:105630007808122B2A7808122B2E901895122957C9
:105640007508807808122B2E12598712395A740760
:10565000122AEC02597D850A82850B83A3A3A3A39A
:10566000E0F510E50A2405F50A5002050BE5106087
:105670002B1279B71233847402122E04125C177441
:1056800002122E041269D260137402122E041259EF
:10569000AFA9101238408A0A8B0B80037510008561
:1056A0000A82850B8312796C60271279B7123384D2
:1056B000851882851983EAF0A3EB1269D8E849605E
:1056C000108518828519831259AFA90F12384080AE
:1056D00003750F009004D18052850A82850B83A345
:1056E000A3A3A3A3A3A3A3E4F0A3F0AA0AAB0B85EF
:1056F0001482851583A3A3E0F81262CBF91232EE6F
:10570000851282851383E0C0E0A811740A28F5820F
:10571000E43419F583D0E0F00511A2005007AA1275
:10572000AB1312338A851482851583E0F514A3E048
:10573000F515E514451570030258F5851482851595
:1057400083A31262CE60DE851482851583A3A3A392
:10575000A3A3A3A3A3E0A2E050CB85148285158365
:10576000A3A3A3A31269D2851482851583A3A36082
:105770001E1262CFFA7901851482851583A3A3A333
:10578000A31259A21227618A128B13D200800F1222
:1057900059A2A3A3A3E0F512A3E0F513C200E512FA
:1057A0004513700302571A851282851383A3E0659F
:1057B000087004A3E06509600F74FF650870047445
:1057C000FF6509600302571A851282851383A3A31C
:1057D000A3A3A3A3A3122957851282851383A3A38E
:1057E000A3A3A3A3E0FC7404122E04126FF3A91068
:1057F0001238227402122AECE9703C851282851359
:1058000083A3A3A3A3A3A3A3A3A3A312295785128E
:1058100082851383A3A3A3A3A3A3A3A3A3E0FC74E0
:1058200002122E04126FF3A90F1238227402122AE8
:10583000ECE9700302571AE50F2510C333240AFA66
:105840007B001232E28A0A8B0BEA450B7003025787
:10585000008A828B8374D2126BEF8A828B83A3A31C
:10586000E8F0A3E9127928A3E510127AD2E50FF047
:10587000E510602C1278CC350BFB850A82850B83F2
:10588000125C127402122E041259B9122B26AC109B
:10589000EC2CFCE433FD1232BE7403122AEC800DB2
:1058A0008A828B83A3A3A3A3A3E4F0A3F0E50F70E4
:1058B000030256D9A810E828F8E433F9E50A28F8D5
:1058C000E50B39F9E81278CD39FB850A82850B831F
:1058D000A3A3A3125C128518828519831259B912E9
:1058E0002B26AC0FEC2CFCE433FD1232BE740312F9
:1058F0002AEC0256EBE5116025127405122B2E7569
:10590000080A7509197808122B2AE511F508780894
:10591000122B2E9018951229577508008029EEFA3F
:10592000EFFB124416E9702F127405122B2E750826
:105930000A7509197808122B2A7508007808122BA5
:105940002E9018951229577808122B2E125987126B
:10595000395A7407122AEC7402122E041269D260AA
:105960000B7402122E04126FF312338A851882858B
:1059700019831269D26006126FED12338A74041211
:105980002AEC7F10022847E5162402FCE43517FDB7
:10599000E516240FF582E43517F583E0F97A067BE6
:1059A00080221259A622E0F8A3E0F583888222E043
:1059B000FCA3E0FDAA0AAB0B22E0F50CA3E0F50D79
:1059C000750E00780C2274F112251874F4122BBA9B
:1059D0008A088B09ECFEEDFF740B122E047403F0A1
:1059E000122B9212348C1243748A0A8B0BAC0AADC0
:1059F0000B7403122B92123486E9600FEE241312FB
:105A000075FA64036010E06401600B8518828519E3
:105A1000837484025B508E828F83A3A3A3A3A3A36A
:105A2000A3A3E06018F46015EE24131275FA640362
:105A30007016EE24141275FA6003F4700B85188248
:105A40008519837482025B501277B3E0642170027F
:105A5000A3E06003025B27851882851983748C128A
:105A60005BCF64036003025B117401122B9A127600
:105A7000BF12409EE96003025B111237868A0A8BCF
:105A80000BEA450B7003025B518E0C8F0D750E00F7
:105A9000780C122B267C157D001232BE7403122A5C
:105AA000EC850882850983A3A3E50A2415FCE43567
:105AB0000BFD7409122A501273CEC0E0E50A241EB1
:105AC000125B8ED0E0125FF4C0E0E50A241F125B87
